{
  "_format": "hh-sol-artifact-1",
  "contractName": "MyToken",
  "sourceName": "contracts/MyToken.sol",
  "abi": [
    {
      "inputs": [],
      "stateMutability": "nonpayable",
      "type": "constructor"
    },
    {
      "anonymous": false,
      "inputs": [
        {
          "indexed": true,
          "internalType": "address",
          "name": "account",
          "type": "address"
        },
        {
          "indexed": true,
          "internalType": "address",
          "name": "operator",
          "type": "address"
        },
        {
          "indexed": false,
          "internalType": "bool",
          "name": "approved",
          "type": "bool"
        }
      ],
      "name": "ApprovalForAll",
      "type": "event"
    },
    {
      "anonymous": false,
      "inputs": [
        {
          "indexed": true,
          "internalType": "address",
          "name": "previousOwner",
          "type": "address"
        },
        {
          "indexed": true,
          "internalType": "address",
          "name": "newOwner",
          "type": "address"
        }
      ],
      "name": "OwnershipTransferred",
      "type": "event"
    },
    {
      "anonymous": false,
      "inputs": [
        {
          "indexed": true,
          "internalType": "address",
          "name": "operator",
          "type": "address"
        },
        {
          "indexed": true,
          "internalType": "address",
          "name": "from",
          "type": "address"
        },
        {
          "indexed": true,
          "internalType": "address",
          "name": "to",
          "type": "address"
        },
        {
          "indexed": false,
          "internalType": "uint256[]",
          "name": "ids",
          "type": "uint256[]"
        },
        {
          "indexed": false,
          "internalType": "uint256[]",
          "name": "values",
          "type": "uint256[]"
        }
      ],
      "name": "TransferBatch",
      "type": "event"
    },
    {
      "anonymous": false,
      "inputs": [
        {
          "indexed": true,
          "internalType": "address",
          "name": "operator",
          "type": "address"
        },
        {
          "indexed": true,
          "internalType": "address",
          "name": "from",
          "type": "address"
        },
        {
          "indexed": true,
          "internalType": "address",
          "name": "to",
          "type": "address"
        },
        {
          "indexed": false,
          "internalType": "uint256",
          "name": "id",
          "type": "uint256"
        },
        {
          "indexed": false,
          "internalType": "uint256",
          "name": "value",
          "type": "uint256"
        }
      ],
      "name": "TransferSingle",
      "type": "event"
    },
    {
      "anonymous": false,
      "inputs": [
        {
          "indexed": false,
          "internalType": "string",
          "name": "value",
          "type": "string"
        },
        {
          "indexed": true,
          "internalType": "uint256",
          "name": "id",
          "type": "uint256"
        }
      ],
      "name": "URI",
      "type": "event"
    },
    {
      "inputs": [
        {
          "internalType": "address",
          "name": "account",
          "type": "address"
        },
        {
          "internalType": "uint256",
          "name": "id",
          "type": "uint256"
        }
      ],
      "name": "balanceOf",
      "outputs": [
        {
          "internalType": "uint256",
          "name": "",
          "type": "uint256"
        }
      ],
      "stateMutability": "view",
      "type": "function"
    },
    {
      "inputs": [
        {
          "internalType": "address[]",
          "name": "accounts",
          "type": "address[]"
        },
        {
          "internalType": "uint256[]",
          "name": "ids",
          "type": "uint256[]"
        }
      ],
      "name": "balanceOfBatch",
      "outputs": [
        {
          "internalType": "uint256[]",
          "name": "",
          "type": "uint256[]"
        }
      ],
      "stateMutability": "view",
      "type": "function"
    },
    {
      "inputs": [
        {
          "internalType": "address",
          "name": "account",
          "type": "address"
        },
        {
          "internalType": "uint256",
          "name": "guess",
          "type": "uint256"
        },
        {
          "internalType": "uint256",
          "name": "amount",
          "type": "uint256"
        }
      ],
      "name": "freemint",
      "outputs": [],
      "stateMutability": "payable",
      "type": "function"
    },
    {
      "inputs": [
        {
          "internalType": "address",
          "name": "account",
          "type": "address"
        },
        {
          "internalType": "address",
          "name": "operator",
          "type": "address"
        }
      ],
      "name": "isApprovedForAll",
      "outputs": [
        {
          "internalType": "bool",
          "name": "",
          "type": "bool"
        }
      ],
      "stateMutability": "view",
      "type": "function"
    },
    {
      "inputs": [
        {
          "internalType": "address",
          "name": "account",
          "type": "address"
        },
        {
          "internalType": "uint256",
          "name": "id",
          "type": "uint256"
        },
        {
          "internalType": "uint256",
          "name": "amount",
          "type": "uint256"
        }
      ],
      "name": "mint",
      "outputs": [],
      "stateMutability": "payable",
      "type": "function"
    },
    {
      "inputs": [],
      "name": "mintRate",
      "outputs": [
        {
          "internalType": "uint256",
          "name": "",
          "type": "uint256"
        }
      ],
      "stateMutability": "view",
      "type": "function"
    },
    {
      "inputs": [
        {
          "internalType": "uint256",
          "name": "",
          "type": "uint256"
        }
      ],
      "name": "minted",
      "outputs": [
        {
          "internalType": "uint256",
          "name": "",
          "type": "uint256"
        }
      ],
      "stateMutability": "view",
      "type": "function"
    },
    {
      "inputs": [],
      "name": "owner",
      "outputs": [
        {
          "internalType": "address",
          "name": "",
          "type": "address"
        }
      ],
      "stateMutability": "view",
      "type": "function"
    },
    {
      "inputs": [
        {
          "internalType": "uint256",
          "name": "number",
          "type": "uint256"
        }
      ],
      "name": "random",
      "outputs": [
        {
          "internalType": "uint256",
          "name": "",
          "type": "uint256"
        }
      ],
      "stateMutability": "view",
      "type": "function"
    },
    {
      "inputs": [],
      "name": "renounceOwnership",
      "outputs": [],
      "stateMutability": "nonpayable",
      "type": "function"
    },
    {
      "inputs": [
        {
          "internalType": "address",
          "name": "from",
          "type": "address"
        },
        {
          "internalType": "address",
          "name": "to",
          "type": "address"
        },
        {
          "internalType": "uint256[]",
          "name": "ids",
          "type": "uint256[]"
        },
        {
          "internalType": "uint256[]",
          "name": "amounts",
          "type": "uint256[]"
        },
        {
          "internalType": "bytes",
          "name": "data",
          "type": "bytes"
        }
      ],
      "name": "safeBatchTransferFrom",
      "outputs": [],
      "stateMutability": "nonpayable",
      "type": "function"
    },
    {
      "inputs": [
        {
          "internalType": "address",
          "name": "from",
          "type": "address"
        },
        {
          "internalType": "address",
          "name": "to",
          "type": "address"
        },
        {
          "internalType": "uint256",
          "name": "id",
          "type": "uint256"
        },
        {
          "internalType": "uint256",
          "name": "amount",
          "type": "uint256"
        },
        {
          "internalType": "bytes",
          "name": "data",
          "type": "bytes"
        }
      ],
      "name": "safeTransferFrom",
      "outputs": [],
      "stateMutability": "nonpayable",
      "type": "function"
    },
    {
      "inputs": [
        {
          "internalType": "address",
          "name": "operator",
          "type": "address"
        },
        {
          "internalType": "bool",
          "name": "approved",
          "type": "bool"
        }
      ],
      "name": "setApprovalForAll",
      "outputs": [],
      "stateMutability": "nonpayable",
      "type": "function"
    },
    {
      "inputs": [
        {
          "internalType": "string",
          "name": "newuri",
          "type": "string"
        }
      ],
      "name": "setURI",
      "outputs": [],
      "stateMutability": "nonpayable",
      "type": "function"
    },
    {
      "inputs": [
        {
          "internalType": "uint256",
          "name": "",
          "type": "uint256"
        }
      ],
      "name": "supplies",
      "outputs": [
        {
          "internalType": "uint256",
          "name": "",
          "type": "uint256"
        }
      ],
      "stateMutability": "view",
      "type": "function"
    },
    {
      "inputs": [
        {
          "internalType": "bytes4",
          "name": "interfaceId",
          "type": "bytes4"
        }
      ],
      "name": "supportsInterface",
      "outputs": [
        {
          "internalType": "bool",
          "name": "",
          "type": "bool"
        }
      ],
      "stateMutability": "view",
      "type": "function"
    },
    {
      "inputs": [
        {
          "internalType": "address",
          "name": "newOwner",
          "type": "address"
        }
      ],
      "name": "transferOwnership",
      "outputs": [],
      "stateMutability": "nonpayable",
      "type": "function"
    },
    {
      "inputs": [
        {
          "internalType": "uint256",
          "name": "",
          "type": "uint256"
        }
      ],
      "name": "uri",
      "outputs": [
        {
          "internalType": "string",
          "name": "",
          "type": "string"
        }
      ],
      "stateMutability": "view",
      "type": "function"
    }
  ],
  "bytecode": "0x6080604052655af3107a400060045560006005556040518060600160405280600060ff168152602001600060ff168152602001600060ff1681525060069060036200004c929190620001c0565b506040518060600160405280600a60ff168152602001600a60ff168152602001603260ff16815250600790600362000086929190620001c0565b503480156200009457600080fd5b5060405180602001604052806000815250620000b681620000dd60201b60201c565b50620000d7620000cb620000f260201b60201c565b620000fa60201b60201c565b62000597565b8060029081620000ee9190620004b0565b5050565b600033905090565b6000600360009054906101000a900473ffffffffffffffffffffffffffffffffffffffff16905081600360006101000a81548173ffffffffffffffffffffffffffffffffffffffff021916908373ffffffffffffffffffffffffffffffffffffffff1602179055508173ffffffffffffffffffffffffffffffffffffffff168173ffffffffffffffffffffffffffffffffffffffff167f8be0079c531659141344cd1fd0a4f28419497f9722a3daafe3b4186f6b6457e060405160405180910390a35050565b82805482825590600052602060002090810192821562000204579160200282015b8281111562000203578251829060ff16905591602001919060010190620001e1565b5b50905062000213919062000217565b5090565b5b808211156200023257600081600090555060010162000218565b5090565b600081519050919050565b7f4e487b7100000000000000000000000000000000000000000000000000000000600052604160045260246000fd5b7f4e487b7100000000000000000000000000000000000000000000000000000000600052602260045260246000fd5b60006002820490506001821680620002b857607f821691505b602082108103620002ce57620002cd62000270565b5b50919050565b60008190508160005260206000209050919050565b60006020601f8301049050919050565b600082821b905092915050565b600060088302620003387fffffffffffffffffffffffffffffffffffffffffffffffffffffffffffffffff82620002f9565b620003448683620002f9565b95508019841693508086168417925050509392505050565b6000819050919050565b6000819050919050565b6000620003916200038b62000385846200035c565b62000366565b6200035c565b9050919050565b6000819050919050565b620003ad8362000370565b620003c5620003bc8262000398565b84845462000306565b825550505050565b600090565b620003dc620003cd565b620003e9818484620003a2565b505050565b5b81811015620004115762000405600082620003d2565b600181019050620003ef565b5050565b601f82111562000460576200042a81620002d4565b6200043584620002e9565b8101602085101562000445578190505b6200045d6200045485620002e9565b830182620003ee565b50505b505050565b600082821c905092915050565b6000620004856000198460080262000465565b1980831691505092915050565b6000620004a0838362000472565b9150826002028217905092915050565b620004bb8262000236565b67ffffffffffffffff811115620004d757620004d662000241565b5b620004e382546200029f565b620004f082828562000415565b600060209050601f83116001811462000528576000841562000513578287015190505b6200051f858262000492565b8655506200058f565b601f1984166200053886620002d4565b60005b8281101562000562578489015182556001820191506020850194506020810190506200053b565b868310156200058257848901516200057e601f89168262000472565b8355505b6001600288020188555050505b505050505050565b61377e80620005a76000396000f3fe6080604052600436106101085760003560e01c8063715018a611610095578063b863bd3711610064578063b863bd3714610370578063ca0dcf16146103ad578063e985e9c5146103d8578063f242432a14610415578063f2fde38b1461043e57610108565b8063715018a6146102c85780637dc0bf3f146102df5780638da5cb5b1461031c578063a22cb4651461034757610108565b8063156e29f6116100dc578063156e29f6146101ed57806326c4d5ee1461020957806326f1a1fd146102255780632eb2c2d6146102625780634e1273f41461028b57610108565b8062fdd58e1461010d57806301ffc9a71461014a57806302fe5305146101875780630e89341c146101b0575b600080fd5b34801561011957600080fd5b50610134600480360381019061012f9190611de4565b610467565b6040516101419190611e33565b60405180910390f35b34801561015657600080fd5b50610171600480360381019061016c9190611ea6565b61052f565b60405161017e9190611eee565b60405180910390f35b34801561019357600080fd5b506101ae60048036038101906101a9919061204f565b610611565b005b3480156101bc57600080fd5b506101d760048036038101906101d29190612098565b610625565b6040516101e49190612144565b60405180910390f35b61020760048036038101906102029190612166565b6106b9565b005b610223600480360381019061021e9190612166565b610856565b005b34801561023157600080fd5b5061024c60048036038101906102479190612098565b6109ea565b6040516102599190611e33565b60405180910390f35b34801561026e57600080fd5b5061028960048036038101906102849190612322565b610a0e565b005b34801561029757600080fd5b506102b260048036038101906102ad91906124b4565b610aaf565b6040516102bf91906125ea565b60405180910390f35b3480156102d457600080fd5b506102dd610bc8565b005b3480156102eb57600080fd5b5061030660048036038101906103019190612098565b610bdc565b6040516103139190611e33565b60405180910390f35b34801561032857600080fd5b50610331610c00565b60405161033e919061261b565b60405180910390f35b34801561035357600080fd5b5061036e60048036038101906103699190612662565b610c2a565b005b34801561037c57600080fd5b5061039760048036038101906103929190612098565b610c40565b6040516103a49190611e33565b60405180910390f35b3480156103b957600080fd5b506103c2610c82565b6040516103cf9190611e33565b60405180910390f35b3480156103e457600080fd5b506103ff60048036038101906103fa91906126a2565b610c88565b60405161040c9190611eee565b60405180910390f35b34801561042157600080fd5b5061043c600480360381019061043791906126e2565b610d1c565b005b34801561044a57600080fd5b5061046560048036038101906104609190612779565b610dbd565b005b60008073ffffffffffffffffffffffffffffffffffffffff168373ffffffffffffffffffffffffffffffffffffffff16036104d7576040517f08c379a00000000000000000000000000000000000000000000000000000000081526004016104ce90612818565b60405180910390fd5b60008083815260200190815260200160002060008473ffffffffffffffffffffffffffffffffffffffff1673ffffffffffffffffffffffffffffffffffffffff16815260200190815260200160002054905092915050565b60007fd9b67a26000000000000000000000000000000000000000000000000000000007bffffffffffffffffffffffffffffffffffffffffffffffffffffffff1916827bffffffffffffffffffffffffffffffffffffffffffffffffffffffff191614806105fa57507f0e89341c000000000000000000000000000000000000000000000000000000007bffffffffffffffffffffffffffffffffffffffffffffffffffffffff1916827bffffffffffffffffffffffffffffffffffffffffffffffffffffffff1916145b8061060a575061060982610e40565b5b9050919050565b610619610eaa565b61062281610f28565b50565b60606002805461063490612867565b80601f016020809104026020016040519081016040528092919081815260200182805461066090612867565b80156106ad5780601f10610682576101008083540402835291602001916106ad565b820191906000526020600020905b81548152906001019060200180831161069057829003601f168201915b50505050509050919050565b600780549050821115610701576040517f08c379a00000000000000000000000000000000000000000000000000000000081526004016106f8906128e4565b60405180910390fd5b60008211610744576040517f08c379a000000000000000000000000000000000000000000000000000000000815260040161073b906128e4565b60405180910390fd5b600454816107529190612933565b341015610794576040517f08c379a000000000000000000000000000000000000000000000000000000000815260040161078b906129c1565b60405180910390fd5b60076001836107a391906129e1565b815481106107b4576107b3612a15565b5b90600052602060002001548160066001856107cf91906129e1565b815481106107e0576107df612a15565b5b90600052602060002001546107f59190612a44565b1115610836576040517f08c379a000000000000000000000000000000000000000000000000000000000815260040161082d90612ac4565b60405180910390fd5b61085183838360405180602001604052806000815250610f3b565b505050565b60078054905061086583610c40565b11156108a6576040517f08c379a000000000000000000000000000000000000000000000000000000000815260040161089d906128e4565b60405180910390fd5b600082116108e9576040517f08c379a00000000000000000000000000000000000000000000000000000000081526004016108e0906128e4565b60405180910390fd5b600760016108f684610c40565b61090091906129e1565b8154811061091157610910612a15565b5b9060005260206000200154816006600161092a86610c40565b61093491906129e1565b8154811061094557610944612a15565b5b906000526020600020015461095a9190612a44565b111561099b576040517f08c379a000000000000000000000000000000000000000000000000000000000815260040161099290612ac4565b60405180910390fd5b6109e5836109a884610c40565b60016040518060400160405280600381526020017f4e616e0000000000000000000000000000000000000000000000000000000000815250610f3b565b505050565b600781815481106109fa57600080fd5b906000526020600020016000915090505481565b610a166110eb565b73ffffffffffffffffffffffffffffffffffffffff168573ffffffffffffffffffffffffffffffffffffffff161480610a5c5750610a5b85610a566110eb565b610c88565b5b610a9b576040517f08c379a0000000000000000000000000000000000000000000000000000000008152600401610a9290612b56565b60405180910390fd5b610aa885858585856110f3565b5050505050565b60608151835114610af5576040517f08c379a0000000000000000000000000000000000000000000000000000000008152600401610aec90612be8565b60405180910390fd5b6000835167ffffffffffffffff811115610b1257610b11611f24565b5b604051908082528060200260200182016040528015610b405781602001602082028036833780820191505090505b50905060005b8451811015610bbd57610b8d858281518110610b6557610b64612a15565b5b6020026020010151858381518110610b8057610b7f612a15565b5b6020026020010151610467565b828281518110610ba057610b9f612a15565b5b60200260200101818152505080610bb690612c08565b9050610b46565b508091505092915050565b610bd0610eaa565b610bda6000611414565b565b60068181548110610bec57600080fd5b906000526020600020016000915090505481565b6000600360009054906101000a900473ffffffffffffffffffffffffffffffffffffffff16905090565b610c3c610c356110eb565b83836114da565b5050565b600081424433604051602001610c5893929190612cb9565b6040516020818303038152906040528051906020012060001c610c7b9190612d25565b9050919050565b60045481565b6000600160008473ffffffffffffffffffffffffffffffffffffffff1673ffffffffffffffffffffffffffffffffffffffff16815260200190815260200160002060008373ffffffffffffffffffffffffffffffffffffffff1673ffffffffffffffffffffffffffffffffffffffff16815260200190815260200160002060009054906101000a900460ff16905092915050565b610d246110eb565b73ffffffffffffffffffffffffffffffffffffffff168573ffffffffffffffffffffffffffffffffffffffff161480610d6a5750610d6985610d646110eb565b610c88565b5b610da9576040517f08c379a0000000000000000000000000000000000000000000000000000000008152600401610da090612b56565b60405180910390fd5b610db68585858585611646565b5050505050565b610dc5610eaa565b600073ffffffffffffffffffffffffffffffffffffffff168173ffffffffffffffffffffffffffffffffffffffff1603610e34576040517f08c379a0000000000000000000000000000000000000000000000000000000008152600401610e2b90612dc8565b60405180910390fd5b610e3d81611414565b50565b60007f01ffc9a7000000000000000000000000000000000000000000000000000000007bffffffffffffffffffffffffffffffffffffffffffffffffffffffff1916827bffffffffffffffffffffffffffffffffffffffffffffffffffffffff1916149050919050565b610eb26110eb565b73ffffffffffffffffffffffffffffffffffffffff16610ed0610c00565b73ffffffffffffffffffffffffffffffffffffffff1614610f26576040517f08c379a0000000000000000000000000000000000000000000000000000000008152600401610f1d90612e34565b60405180910390fd5b565b8060029081610f379190613000565b5050565b600073ffffffffffffffffffffffffffffffffffffffff168473ffffffffffffffffffffffffffffffffffffffff1603610faa576040517f08c379a0000000000000000000000000000000000000000000000000000000008152600401610fa190613144565b60405180910390fd5b6000610fb46110eb565b90506000610fc1856118e1565b90506000610fce856118e1565b9050610fdf8360008985858961195b565b8460008088815260200190815260200160002060008973ffffffffffffffffffffffffffffffffffffffff1673ffffffffffffffffffffffffffffffffffffffff168152602001908152602001600020600082825461103e9190612a44565b925050819055508673ffffffffffffffffffffffffffffffffffffffff16600073ffffffffffffffffffffffffffffffffffffffff168473ffffffffffffffffffffffffffffffffffffffff167fc3d58168c5ae7397731d063d5bbf3d657854427343f4c083240f7aacaa2d0f6289896040516110bc929190613164565b60405180910390a46110d383600089858589611963565b6110e28360008989898961196b565b50505050505050565b600033905090565b8151835114611137576040517f08c379a000000000000000000000000000000000000000000000000000000000815260040161112e906131ff565b60405180910390fd5b600073ffffffffffffffffffffffffffffffffffffffff168473ffffffffffffffffffffffffffffffffffffffff16036111a6576040517f08c379a000000000000000000000000000000000000000000000000000000000815260040161119d90613291565b60405180910390fd5b60006111b06110eb565b90506111c081878787878761195b565b60005b84518110156113715760008582815181106111e1576111e0612a15565b5b602002602001015190506000858381518110611200576111ff612a15565b5b60200260200101519050600080600084815260200190815260200160002060008b73ffffffffffffffffffffffffffffffffffffffff1673ffffffffffffffffffffffffffffffffffffffff168152602001908152602001600020549050818110156112a1576040517f08c379a000000000000000000000000000000000000000000000000000000000815260040161129890613323565b60405180910390fd5b81810360008085815260200190815260200160002060008c73ffffffffffffffffffffffffffffffffffffffff1673ffffffffffffffffffffffffffffffffffffffff168152602001908152602001600020819055508160008085815260200190815260200160002060008b73ffffffffffffffffffffffffffffffffffffffff1673ffffffffffffffffffffffffffffffffffffffff16815260200190815260200160002060008282546113569190612a44565b925050819055505050508061136a90612c08565b90506111c3565b508473ffffffffffffffffffffffffffffffffffffffff168673ffffffffffffffffffffffffffffffffffffffff168273ffffffffffffffffffffffffffffffffffffffff167f4a39dc06d4c0dbc64b70af90fd698a233a518aa5d07e595d983b8c0526c8f7fb87876040516113e8929190613343565b60405180910390a46113fe818787878787611963565b61140c818787878787611b42565b505050505050565b6000600360009054906101000a900473ffffffffffffffffffffffffffffffffffffffff16905081600360006101000a81548173ffffffffffffffffffffffffffffffffffffffff021916908373ffffffffffffffffffffffffffffffffffffffff1602179055508173ffffffffffffffffffffffffffffffffffffffff168173ffffffffffffffffffffffffffffffffffffffff167f8be0079c531659141344cd1fd0a4f28419497f9722a3daafe3b4186f6b6457e060405160405180910390a35050565b8173ffffffffffffffffffffffffffffffffffffffff168373ffffffffffffffffffffffffffffffffffffffff1603611548576040517f08c379a000000000000000000000000000000000000000000000000000000000815260040161153f906133ec565b60405180910390fd5b80600160008573ffffffffffffffffffffffffffffffffffffffff1673ffffffffffffffffffffffffffffffffffffffff16815260200190815260200160002060008473ffffffffffffffffffffffffffffffffffffffff1673ffffffffffffffffffffffffffffffffffffffff16815260200190815260200160002060006101000a81548160ff0219169083151502179055508173ffffffffffffffffffffffffffffffffffffffff168373ffffffffffffffffffffffffffffffffffffffff167f17307eab39ab6107e8899845ad3d59bd9653f200f220920489ca2b5937696c31836040516116399190611eee565b60405180910390a3505050565b600073ffffffffffffffffffffffffffffffffffffffff168473ffffffffffffffffffffffffffffffffffffffff16036116b5576040517f08c379a00000000000000000000000000000000000000000000000000000000081526004016116ac90613291565b60405180910390fd5b60006116bf6110eb565b905060006116cc856118e1565b905060006116d9856118e1565b90506116e983898985858961195b565b600080600088815260200190815260200160002060008a73ffffffffffffffffffffffffffffffffffffffff1673ffffffffffffffffffffffffffffffffffffffff16815260200190815260200160002054905085811015611780576040517f08c379a000000000000000000000000000000000000000000000000000000000815260040161177790613323565b60405180910390fd5b85810360008089815260200190815260200160002060008b73ffffffffffffffffffffffffffffffffffffffff1673ffffffffffffffffffffffffffffffffffffffff168152602001908152602001600020819055508560008089815260200190815260200160002060008a73ffffffffffffffffffffffffffffffffffffffff1673ffffffffffffffffffffffffffffffffffffffff16815260200190815260200160002060008282546118359190612a44565b925050819055508773ffffffffffffffffffffffffffffffffffffffff168973ffffffffffffffffffffffffffffffffffffffff168573ffffffffffffffffffffffffffffffffffffffff167fc3d58168c5ae7397731d063d5bbf3d657854427343f4c083240f7aacaa2d0f628a8a6040516118b2929190613164565b60405180910390a46118c8848a8a86868a611963565b6118d6848a8a8a8a8a61196b565b505050505050505050565b60606000600167ffffffffffffffff811115611900576118ff611f24565b5b60405190808252806020026020018201604052801561192e5781602001602082028036833780820191505090505b509050828160008151811061194657611945612a15565b5b60200260200101818152505080915050919050565b505050505050565b505050505050565b61198a8473ffffffffffffffffffffffffffffffffffffffff16611d19565b15611b3a578373ffffffffffffffffffffffffffffffffffffffff1663f23a6e6187878686866040518663ffffffff1660e01b81526004016119d0959493929190613461565b6020604051808303816000875af1925050508015611a0c57506040513d601f19601f82011682018060405250810190611a0991906134d0565b60015b611ab157611a1861350a565b806308c379a003611a745750611a2c61352c565b80611a375750611a76565b806040517f08c379a0000000000000000000000000000000000000000000000000000000008152600401611a6b9190612144565b60405180910390fd5b505b6040517f08c379a0000000000000000000000000000000000000000000000000000000008152600401611aa89061362e565b60405180910390fd5b63f23a6e6160e01b7bffffffffffffffffffffffffffffffffffffffffffffffffffffffff1916817bffffffffffffffffffffffffffffffffffffffffffffffffffffffff191614611b38576040517f08c379a0000000000000000000000000000000000000000000000000000000008152600401611b2f906136c0565b60405180910390fd5b505b505050505050565b611b618473ffffffffffffffffffffffffffffffffffffffff16611d19565b15611d11578373ffffffffffffffffffffffffffffffffffffffff1663bc197c8187878686866040518663ffffffff1660e01b8152600401611ba79594939291906136e0565b6020604051808303816000875af1925050508015611be357506040513d601f19601f82011682018060405250810190611be091906134d0565b60015b611c8857611bef61350a565b806308c379a003611c4b5750611c0361352c565b80611c0e5750611c4d565b806040517f08c379a0000000000000000000000000000000000000000000000000000000008152600401611c429190612144565b60405180910390fd5b505b6040517f08c379a0000000000000000000000000000000000000000000000000000000008152600401611c7f9061362e565b60405180910390fd5b63bc197c8160e01b7bffffffffffffffffffffffffffffffffffffffffffffffffffffffff1916817bffffffffffffffffffffffffffffffffffffffffffffffffffffffff191614611d0f576040517f08c379a0000000000000000000000000000000000000000000000000000000008152600401611d06906136c0565b60405180910390fd5b505b505050505050565b6000808273ffffffffffffffffffffffffffffffffffffffff163b119050919050565b6000604051905090565b600080fd5b600080fd5b600073ffffffffffffffffffffffffffffffffffffffff82169050919050565b6000611d7b82611d50565b9050919050565b611d8b81611d70565b8114611d9657600080fd5b50565b600081359050611da881611d82565b92915050565b6000819050919050565b611dc181611dae565b8114611dcc57600080fd5b50565b600081359050611dde81611db8565b92915050565b60008060408385031215611dfb57611dfa611d46565b5b6000611e0985828601611d99565b9250506020611e1a85828601611dcf565b9150509250929050565b611e2d81611dae565b82525050565b6000602082019050611e486000830184611e24565b92915050565b60007fffffffff0000000000000000000000000000000000000000000000000000000082169050919050565b611e8381611e4e565b8114611e8e57600080fd5b50565b600081359050611ea081611e7a565b92915050565b600060208284031215611ebc57611ebb611d46565b5b6000611eca84828501611e91565b91505092915050565b60008115159050919050565b611ee881611ed3565b82525050565b6000602082019050611f036000830184611edf565b92915050565b600080fd5b600080fd5b6000601f19601f8301169050919050565b7f4e487b7100000000000000000000000000000000000000000000000000000000600052604160045260246000fd5b611f5c82611f13565b810181811067ffffffffffffffff82111715611f7b57611f7a611f24565b5b80604052505050565b6000611f8e611d3c565b9050611f9a8282611f53565b919050565b600067ffffffffffffffff821115611fba57611fb9611f24565b5b611fc382611f13565b9050602081019050919050565b82818337600083830152505050565b6000611ff2611fed84611f9f565b611f84565b90508281526020810184848401111561200e5761200d611f0e565b5b612019848285611fd0565b509392505050565b600082601f83011261203657612035611f09565b5b8135612046848260208601611fdf565b91505092915050565b60006020828403121561206557612064611d46565b5b600082013567ffffffffffffffff81111561208357612082611d4b565b5b61208f84828501612021565b91505092915050565b6000602082840312156120ae576120ad611d46565b5b60006120bc84828501611dcf565b91505092915050565b600081519050919050565b600082825260208201905092915050565b60005b838110156120ff5780820151818401526020810190506120e4565b60008484015250505050565b6000612116826120c5565b61212081856120d0565b93506121308185602086016120e1565b61213981611f13565b840191505092915050565b6000602082019050818103600083015261215e818461210b565b905092915050565b60008060006060848603121561217f5761217e611d46565b5b600061218d86828701611d99565b935050602061219e86828701611dcf565b92505060406121af86828701611dcf565b9150509250925092565b600067ffffffffffffffff8211156121d4576121d3611f24565b5b602082029050602081019050919050565b600080fd5b60006121fd6121f8846121b9565b611f84565b905080838252602082019050602084028301858111156122205761221f6121e5565b5b835b8181101561224957806122358882611dcf565b845260208401935050602081019050612222565b5050509392505050565b600082601f83011261226857612267611f09565b5b81356122788482602086016121ea565b91505092915050565b600067ffffffffffffffff82111561229c5761229b611f24565b5b6122a582611f13565b9050602081019050919050565b60006122c56122c084612281565b611f84565b9050828152602081018484840111156122e1576122e0611f0e565b5b6122ec848285611fd0565b509392505050565b600082601f83011261230957612308611f09565b5b81356123198482602086016122b2565b91505092915050565b600080600080600060a0868803121561233e5761233d611d46565b5b600061234c88828901611d99565b955050602061235d88828901611d99565b945050604086013567ffffffffffffffff81111561237e5761237d611d4b565b5b61238a88828901612253565b935050606086013567ffffffffffffffff8111156123ab576123aa611d4b565b5b6123b788828901612253565b925050608086013567ffffffffffffffff8111156123d8576123d7611d4b565b5b6123e4888289016122f4565b9150509295509295909350565b600067ffffffffffffffff82111561240c5761240b611f24565b5b602082029050602081019050919050565b600061243061242b846123f1565b611f84565b90508083825260208201905060208402830185811115612453576124526121e5565b5b835b8181101561247c57806124688882611d99565b845260208401935050602081019050612455565b5050509392505050565b600082601f83011261249b5761249a611f09565b5b81356124ab84826020860161241d565b91505092915050565b600080604083850312156124cb576124ca611d46565b5b600083013567ffffffffffffffff8111156124e9576124e8611d4b565b5b6124f585828601612486565b925050602083013567ffffffffffffffff81111561251657612515611d4b565b5b61252285828601612253565b9150509250929050565b600081519050919050565b600082825260208201905092915050565b6000819050602082019050919050565b61256181611dae565b82525050565b60006125738383612558565b60208301905092915050565b6000602082019050919050565b60006125978261252c565b6125a18185612537565b93506125ac83612548565b8060005b838110156125dd5781516125c48882612567565b97506125cf8361257f565b9250506001810190506125b0565b5085935050505092915050565b60006020820190508181036000830152612604818461258c565b905092915050565b61261581611d70565b82525050565b6000602082019050612630600083018461260c565b92915050565b61263f81611ed3565b811461264a57600080fd5b50565b60008135905061265c81612636565b92915050565b6000806040838503121561267957612678611d46565b5b600061268785828601611d99565b92505060206126988582860161264d565b9150509250929050565b600080604083850312156126b9576126b8611d46565b5b60006126c785828601611d99565b92505060206126d885828601611d99565b9150509250929050565b600080600080600060a086880312156126fe576126fd611d46565b5b600061270c88828901611d99565b955050602061271d88828901611d99565b945050604061272e88828901611dcf565b935050606061273f88828901611dcf565b925050608086013567ffffffffffffffff8111156127605761275f611d4b565b5b61276c888289016122f4565b9150509295509295909350565b60006020828403121561278f5761278e611d46565b5b600061279d84828501611d99565b91505092915050565b7f455243313135353a2061646472657373207a65726f206973206e6f742061207660008201527f616c6964206f776e657200000000000000000000000000000000000000000000602082015250565b6000612802602a836120d0565b915061280d826127a6565b604082019050919050565b60006020820190508181036000830152612831816127f5565b9050919050565b7f4e487b7100000000000000000000000000000000000000000000000000000000600052602260045260246000fd5b6000600282049050600182168061287f57607f821691505b60208210810361289257612891612838565b5b50919050565b7f546f6b656e20646f65736e277420657869737400000000000000000000000000600082015250565b60006128ce6013836120d0565b91506128d982612898565b602082019050919050565b600060208201905081810360008301526128fd816128c1565b9050919050565b7f4e487b7100000000000000000000000000000000000000000000000000000000600052601160045260246000fd5b600061293e82611dae565b915061294983611dae565b925082820261295781611dae565b9150828204841483151761296e5761296d612904565b5b5092915050565b7f4e6f7420656e6f7567682065746865722073656e740000000000000000000000600082015250565b60006129ab6015836120d0565b91506129b682612975565b602082019050919050565b600060208201905081810360008301526129da8161299e565b9050919050565b60006129ec82611dae565b91506129f783611dae565b9250828203905081811115612a0f57612a0e612904565b5b92915050565b7f4e487b7100000000000000000000000000000000000000000000000000000000600052603260045260246000fd5b6000612a4f82611dae565b9150612a5a83611dae565b9250828201905080821115612a7257612a71612904565b5b92915050565b7f6e6f7420656e6f7567687420737570706c79206c656674000000000000000000600082015250565b6000612aae6017836120d0565b9150612ab982612a78565b602082019050919050565b60006020820190508181036000830152612add81612aa1565b9050919050565b7f455243313135353a2063616c6c6572206973206e6f7420746f6b656e206f776e60008201527f6572206e6f7220617070726f7665640000000000000000000000000000000000602082015250565b6000612b40602f836120d0565b9150612b4b82612ae4565b604082019050919050565b60006020820190508181036000830152612b6f81612b33565b9050919050565b7f455243313135353a206163636f756e747320616e6420696473206c656e67746860008201527f206d69736d617463680000000000000000000000000000000000000000000000602082015250565b6000612bd26029836120d0565b9150612bdd82612b76565b604082019050919050565b60006020820190508181036000830152612c0181612bc5565b9050919050565b6000612c1382611dae565b91507fffffffffffffffffffffffffffffffffffffffffffffffffffffffffffffffff8203612c4557612c44612904565b5b600182019050919050565b6000819050919050565b612c6b612c6682611dae565b612c50565b82525050565b60008160601b9050919050565b6000612c8982612c71565b9050919050565b6000612c9b82612c7e565b9050919050565b612cb3612cae82611d70565b612c90565b82525050565b6000612cc58286612c5a565b602082019150612cd58285612c5a565b602082019150612ce58284612ca2565b601482019150819050949350505050565b7f4e487b7100000000000000000000000000000000000000000000000000000000600052601260045260246000fd5b6000612d3082611dae565b9150612d3b83611dae565b925082612d4b57612d4a612cf6565b5b828206905092915050565b7f4f776e61626c653a206e6577206f776e657220697320746865207a65726f206160008201527f6464726573730000000000000000000000000000000000000000000000000000602082015250565b6000612db26026836120d0565b9150612dbd82612d56565b604082019050919050565b60006020820190508181036000830152612de181612da5565b9050919050565b7f4f776e61626c653a2063616c6c6572206973206e6f7420746865206f776e6572600082015250565b6000612e1e6020836120d0565b9150612e2982612de8565b602082019050919050565b60006020820190508181036000830152612e4d81612e11565b9050919050565b60008190508160005260206000209050919050565b60006020601f8301049050919050565b600082821b905092915050565b600060088302612eb67fffffffffffffffffffffffffffffffffffffffffffffffffffffffffffffffff82612e79565b612ec08683612e79565b95508019841693508086168417925050509392505050565b6000819050919050565b6000612efd612ef8612ef384611dae565b612ed8565b611dae565b9050919050565b6000819050919050565b612f1783612ee2565b612f2b612f2382612f04565b848454612e86565b825550505050565b600090565b612f40612f33565b612f4b818484612f0e565b505050565b5b81811015612f6f57612f64600082612f38565b600181019050612f51565b5050565b601f821115612fb457612f8581612e54565b612f8e84612e69565b81016020851015612f9d578190505b612fb1612fa985612e69565b830182612f50565b50505b505050565b600082821c905092915050565b6000612fd760001984600802612fb9565b1980831691505092915050565b6000612ff08383612fc6565b9150826002028217905092915050565b613009826120c5565b67ffffffffffffffff81111561302257613021611f24565b5b61302c8254612867565b613037828285612f73565b600060209050601f83116001811461306a5760008415613058578287015190505b6130628582612fe4565b8655506130ca565b601f19841661307886612e54565b60005b828110156130a05784890151825560018201915060208501945060208101905061307b565b868310156130bd57848901516130b9601f891682612fc6565b8355505b6001600288020188555050505b505050505050565b7f455243313135353a206d696e7420746f20746865207a65726f2061646472657360008201527f7300000000000000000000000000000000000000000000000000000000000000602082015250565b600061312e6021836120d0565b9150613139826130d2565b604082019050919050565b6000602082019050818103600083015261315d81613121565b9050919050565b60006040820190506131796000830185611e24565b6131866020830184611e24565b9392505050565b7f455243313135353a2069647320616e6420616d6f756e7473206c656e6774682060008201527f6d69736d61746368000000000000000000000000000000000000000000000000602082015250565b60006131e96028836120d0565b91506131f48261318d565b604082019050919050565b60006020820190508181036000830152613218816131dc565b9050919050565b7f455243313135353a207472616e7366657220746f20746865207a65726f20616460008201527f6472657373000000000000000000000000000000000000000000000000000000602082015250565b600061327b6025836120d0565b91506132868261321f565b604082019050919050565b600060208201905081810360008301526132aa8161326e565b9050919050565b7f455243313135353a20696e73756666696369656e742062616c616e636520666f60008201527f72207472616e7366657200000000000000000000000000000000000000000000602082015250565b600061330d602a836120d0565b9150613318826132b1565b604082019050919050565b6000602082019050818103600083015261333c81613300565b9050919050565b6000604082019050818103600083015261335d818561258c565b90508181036020830152613371818461258c565b90509392505050565b7f455243313135353a2073657474696e6720617070726f76616c2073746174757360008201527f20666f722073656c660000000000000000000000000000000000000000000000602082015250565b60006133d66029836120d0565b91506133e18261337a565b604082019050919050565b60006020820190508181036000830152613405816133c9565b9050919050565b600081519050919050565b600082825260208201905092915050565b60006134338261340c565b61343d8185613417565b935061344d8185602086016120e1565b61345681611f13565b840191505092915050565b600060a082019050613476600083018861260c565b613483602083018761260c565b6134906040830186611e24565b61349d6060830185611e24565b81810360808301526134af8184613428565b90509695505050505050565b6000815190506134ca81611e7a565b92915050565b6000602082840312156134e6576134e5611d46565b5b60006134f4848285016134bb565b91505092915050565b60008160e01c9050919050565b600060033d11156135295760046000803e6135266000516134fd565b90505b90565b600060443d106135b95761353e611d3c565b60043d036004823e80513d602482011167ffffffffffffffff821117156135665750506135b9565b808201805167ffffffffffffffff81111561358457505050506135b9565b80602083010160043d0385018111156135a15750505050506135b9565b6135b082602001850186611f53565b82955050505050505b90565b7f455243313135353a207472616e7366657220746f206e6f6e204552433131353560008201527f526563656976657220696d706c656d656e746572000000000000000000000000602082015250565b60006136186034836120d0565b9150613623826135bc565b604082019050919050565b600060208201905081810360008301526136478161360b565b9050919050565b7f455243313135353a204552433131353552656365697665722072656a6563746560008201527f6420746f6b656e73000000000000000000000000000000000000000000000000602082015250565b60006136aa6028836120d0565b91506136b58261364e565b604082019050919050565b600060208201905081810360008301526136d98161369d565b9050919050565b600060a0820190506136f5600083018861260c565b613702602083018761260c565b8181036040830152613714818661258c565b90508181036060830152613728818561258c565b9050818103608083015261373c8184613428565b9050969550505050505056fea2646970667358221220078e74bb1e585a54381f51f509ef8807ec82be845508712fd7ae63f4e2f9d6c264736f6c63430008110033",
  "linkReferences": {},
  "deployedLinkReferences": {}
}